:020000040000FA
:1000000083167030860085018312850186010430D5
:100010009D00203090001030910030309200003070
:10002000930040309400603095005030960070305E
:10003000970001309B0002309C000608100603194F
:1000400050280608110603193E280608120603194F
:100050003E28060813060319532806081406031938
:100060004728060815060319472806081606031927
:100070003E2806081706031947281D280630850064
:100080006A20003085006A209E011E141D28093058
:1000900085006A20003085006A209E019E141D287C
:1000A000053085001D281B081E06031963281C083F
:1000B0001E0603195C281D280A3085006A201130AD
:1000C00085006A201D280A3085006A2014308500CA
:1000D0006A201D2801308C0028308D0028308E00C9
:1000E0008E0B70288D0B6E288C0B6C28080001304D
:1000F0009800FA30990078309A007C28990B7A2879
:06010000980B78280800AE
:04010600003400348D
:02400E00F13F80
:00000001FF
