:020000040000FA
:1000000083167030860085018312850186010430D5
:100010009B00203090001030910030309200003072
:10002000930040309400603095005030960070305E
:100030009700060810060319482806081106031938
:100040003A280608120603193A2806081306031967
:100050004B2806081406031941280608150603193B
:1000600041280608160603193A2806081706031938
:1000700041281928063085004E20003085004E208A
:100080001928093085004E20003086004E2019289E
:100090000530850019280A308500192801308C00A8
:1000A00028308D0028308E008E0B54288D0B52285E
:1000B0008C0B5028080001309800FA3099007830F5
:0E00C0009A006028990B5E28980B5C280800B7
:0200CE000034FC
:0200D0000034FA
:02400E00F13F80
:00000001FF
